:100000000C945F000C9487000C9487000C9487007C
:100010000C9487000C9487000C9487000C94870044
:100020000C9487000C9487000C9487000C94870034
:100030000C9487000C9487000C9487000C94870024
:100040000C94B1040C9487000C944C020C947E0226
:100050000C9487000C9487000C9487000C94870004
:100060000C9487000C948700000000080002010037
:100070000003040700000000000000000102040863
:100080001020408001020408102001020408102002
:10009000040404040404040402020202020203032E
:1000A0000303030300000000250028002B000000CC
:1000B0000000240027002A00B200AE02B80011247C
:1000C0001FBECFEFD8E0DEBFCDBF11E0A0E0B1E0B2
:1000D000E8E8F0E102C005900D92A63CB107D9F71F
:1000E00022E0A6ECB1E001C01D92A737B207E1F70C
:1000F00010E0CEE5D0E004C02197FE010E94EB05A0
:10010000CC35D107C9F70E94A2040C9437080C948F
:10011000000061E082E00E945F0560E082E00E94F2
:100120009B0526E040E855E260E070E08DEC91E050
:100130000E94EA0166E071E08DEC91E00E941B03F1
:100140006FE171E08DEC91E00E941B0368E371E0C8
:100150008DEC91E00E941B0361E571E08DEC91E074
:100160000C941B0364EC71E087EC91E00C94A40305
:1001700087EC91E00C9432038DEC91E00E94100129
:10018000892B09F44CC08DEC91E00E942A018A3041
:1001900011F08D30F1F587EC91E00E94440487EC7A
:1001A00091E00E942E046AE671E087EC91E00E94E3
:1001B00011048823A1F061E082E00E949B0581E0A8
:1001C0008093C6016DE671E08DEC91E00E941B0307
:1001D00064EC71E087EC91E00E94C303CDCF69E746
:1001E00071E087EC91E00E941104882349F060E0FF
:1001F00082E00E949B051092C6016DE771E0E4CF9A
:100200008091CB019091CC01892B11F36AE871E0C8
:10021000DBCF682F87EC91E00E94FE03ADCF0895FD
:10022000FC01918D228D892F90E0805C9F4F821B75
:1002300091098F7399270895FC01918D828D9817EC
:1002400031F0828DE80FF11D858D90E008958FEFDC
:100250009FEF0895FC01918D828D981761F0A28D1A
:10026000AE0FBF2FB11D5D968C91928D9F5F9F73D6
:10027000928F90E008958FEF9FEF0895FC01538DCA
:10028000448D252F30E0842F90E0821B930B541770
:1002900010F0CF9608950197089584EA92E0892B93
:1002A00049F080E090E0892B29F00E94A40281119E
:1002B0000C9400000895FC01A48DA80FB92FB11D66
:1002C000A35ABF4F2C91848D90E001968F7399278C
:1002D000848FA689B7892C93A089B1898C9183706A
:1002E00080648C93938D848D981306C00288F38963
:1002F000E02D80818F7D80830895CF93DF93EC0183
:10030000888D8823B9F0AA89BB89E889F9898C91FD
:1003100085FD03C0808186FD0DC00FB607FCF7CFB9
:100320008C9185FFF2CF808185FFEDCFCE010E94B9
:100330005B01E9CFDF91CF910895EF92FF920F9388
:100340001F93CF93DF93EC0181E0888F9B8D8C8D81
:1003500098131AC0E889F989808185FF15C09FB775
:10036000F894EE89FF896083E889F9898081837038
:10037000806480839FBF81E090E0DF91CF911F91E7
:100380000F91FF90EF900895F62E0B8D10E00F5F08
:100390001F4F0F731127E02E8C8D8E110CC00FB6DE
:1003A00007FCFACFE889F989808185FFF5CFCE0176
:1003B0000E945B01F1CFEB8DEC0FFD2FF11DE35A95
:1003C000FF4FF0829FB7F8940B8FEA89FB898081F9
:1003D0008062CFCFCF92DF92EF92FF921F93CF93A5
:1003E000DF93EC016A017B01122FE889F98982E031
:1003F0008083C11481EED806E104F104A1F060E02D
:1004000079E08DE390E0A70196010E94C905215093
:100410003109410951095695479537952795211579
:1004200080E1380798F0E889F989108260E874E87B
:100430008EE190E0A70196010E94C9052150310983
:10044000410951095695479537952795EC85FD85C6
:100450003083EE85FF852083188EEC89FD8910831B
:10046000EA89FB89808180618083EA89FB898081B8
:1004700088608083EA89FB89808180688083EA893B
:10048000FB8980818F7D8083DF91CF911F91FF90C9
:10049000EF90DF90CF9008951F920F920FB60F92BA
:1004A00011242F938F939F93EF93FF93E091DD019E
:1004B000F091DE018081E091E301F091E40182FDA1
:1004C0001BC090818091E6018F5F8F732091E701BF
:1004D000821741F0E091E601F0E0E353FE4F958F83
:1004E0008093E601FF91EF919F918F912F910F9053
:1004F0000FBE0F901F9018958081F4CF1F920F921E
:100500000FB60F9211242F933F934F935F936F93E6
:100510007F938F939F93AF93BF93EF93FF938DEC54
:1005200091E00E945B01FF91EF91BF91AF919F918C
:100530008F917F916F915F914F913F912F910F908C
:100540000FBE0F901F9018958DEC91E00E94100146
:1005500021E0892B09F420E0822F0895EDECF1E0F1
:100560001382128288EE93E0A0E0B0E0848395834A
:10057000A683B78384EB91E09183808385EC90E040
:100580009587848784EC90E09787868780EC90E05D
:10059000918B808B81EC90E0938B828B82EC90E04E
:1005A000958B848B86EC90E0978B868B118E128EC8
:1005B000138E148E0895AF92BF92CF92DF92EF9276
:1005C000FF920F931F93CF93DF936C017B018B01FD
:1005D000040F151FEB015E01AE18BF08C017D1074D
:1005E00059F06991D601ED91FC910190F081E02DD7
:1005F000C6010995892B79F7C501DF91CF911F912C
:100600000F91FF90EF90DF90CF90BF90AF90089543
:10061000FB0101900020E9F73197AF01461B570B12
:10062000DC01ED91FC910280F381E02D099462ECF4
:1006300071E00C9408030F931F93CF93DF938C0109
:10064000D0E0C0E06115710519F00E940803EC01CB
:10065000C8010E9417038C0F9D1FDF91CF911F913E
:100660000F910895FC0180819181009711F00C9405
:100670008D060895CF93DF93EC01888199810097CF
:1006800011F00E948D06198218821D821C821B8225
:100690001A82DF91CF9108950F931F93CF93DF9329
:1006A000EC018B016F5F7F4F888199810E94160753
:1006B000009751F0998388831B830A8381E0DF913F
:1006C000CF911F910F91089580E0F9CFCF93DF93E1
:1006D000EC0188819981892B49F08A819B81861759
:1006E000970720F081E0DF91CF910895CE010E941D
:1006F0004C038823C1F38C819D81892B99F7E88174
:10070000F9811082EFCFEF92FF920F931F93CF9357
:10071000DF93EC017B018A01BA010E94660381111B
:100720000BC0CE010E943A03CE01DF91CF911F9101
:100730000F91FF90EF9008951D830C83B70188817E
:1007400099810E94F607F0CFFC011182108213827A
:100750001282158214826115710551F0FB0101901E
:100760000020E9F73197AF01461B570B0C94830328
:100770000895FB0101900020E9F73197AF01461B76
:10078000570B0C948303CF93DF93EC016115710534
:1007900031F00E94B903CE01DF91CF9108950E94FC
:1007A0003A03F9CFEF92FF920F931F93CF93DF930A
:1007B0006115710541F480E0DF91CF911F910F9198
:1007C000FF90EF90089541155105B1F07B01EC01C8
:1007D0000C811D81040F151FB8010E946603882338
:1007E00051F3288139818C819D81B701820F931F3C
:1007F0000E94F6071D830C8381E0DECFCF93DF9349
:1008000000D0CDB7DEB769831A8241E050E0BE0167
:100810006F5F7F4F0E94D2030F900F90DF91CF91B7
:100820000895FC0124813581232B31F421E0FB0163
:10083000672B49F4822F089580819181611571059C
:1008400039F421E0FC0180818823A1F320E0F2CF7C
:100850000E94ED0721E0892B69F3F8CFCF93DF9356
:10086000FC01C081D181209761F08991882349F0F2
:10087000082E000C990B0E94DC07FE013197808343
:10088000F4CFDF91CF910895AF92BF92CF92DF92D4
:10089000EF92FF920F931F93CF93DF93DC01CD90E4
:1008A000DC901197C114D10439F01496CD91DC91EC
:1008B0008C017601209761F4DF91CF911F910F9108
:1008C000FF90EF90DF90CF90BF90AF9008957501AB
:1008D0005701BFEFAB1ABB0AF7018081082E000C4D
:1008E000990B0E94D307892B91F72197CC0DDD1D21
:1008F0008881082E000C990B0E94D307892B29F0C0
:10090000CE15DF0510F02197F3CFAE014F5F5F4F9B
:100910004E195F09D80115965C934E931497CE1427
:10092000DF0420F4B701C6010E94E407D801ED916D
:10093000FC91119714968D919C91E80FF91F1082EC
:10094000BBCF08950E94FB040E94A1040E9489006D
:10095000CDE4D1E00E94BC002097E1F30E944D015C
:10096000F9CF1F920F920FB60F9211242F933F933E
:100970008F939F93AF93BF9380916B0290916C0282
:10098000A0916D02B0916E0230916A0223E0230FB4
:100990002D3758F50196A11DB11D20936A02809351
:1009A0006B0290936C02A0936D02B0936E028091E3
:1009B0006F0290917002A0917102B0917202019643
:1009C000A11DB11D80936F0290937002A0937102DC
:1009D000B0937202BF91AF919F918F913F912F91F0
:1009E0000F900FBE0F901F90189526E8230F0296C8
:1009F000A11DB11DD2CF789484B5826084BD84B529
:100A0000816084BD85B5826085BD85B5816085BD09
:100A1000EEE6F0E0808181608083E1E8F0E0108222
:100A2000808182608083808181608083E0E8F0E063
:100A3000808181608083E1EBF0E08081846080834D
:100A4000E0EBF0E0808181608083EAE7F0E0808184
:100A500084608083808182608083808181608083E4
:100A60008081806880831092C1000895833081F076
:100A700028F4813099F08230A9F008958730A9F0E8
:100A80008830C9F08430B1F4809180008F7D03C03C
:100A9000809180008F7780938000089584B58F7750
:100AA00084BD089584B58F7DFBCF8091B0008F7792
:100AB0008093B00008958091B0008F7DF9CFCF93DF
:100AC000DF9390E0FC01E458FF4F249180579F4F43
:100AD000FC0184918823C9F090E0880F991FFC01E4
:100AE000E255FF4FA591B491FC01EC55FF4FC59124
:100AF000D49161110DC09FB7F8948C9120958223F9
:100B00008C938881282328839FBFDF91CF910895FC
:100B1000623051F49FB7F8943C91822F80958323E3
:100B20008C93E8812E2BEFCF8FB7F894EC912E2B7E
:100B30002C938FBFEACF1F93CF93DF93282F30E002
:100B4000F901E859FF4F8491F901E458FF4FD4911E
:100B5000F901E057FF4FC491CC23A9F0162F811162
:100B60000E943605EC2FF0E0EE0FFF1FEC55FF4F13
:100B7000A591B4918FB7F894EC91111108C0D0955C
:100B8000DE23DC938FBFDF91CF911F910895DE2B81
:100B9000F8CFA1E21A2EAA1BBB1BFD010DC0AA1F94
:100BA000BB1FEE1FFF1FA217B307E407F50720F0D6
:100BB000A21BB30BE40BF50B661F771F881F991F51
:100BC0001A9469F760957095809590959B01AC019A
:100BD000BD01CF010895EE0FFF1F0590F491E02DA8
:100BE00009940F931F93CF93DF938230910510F4F4
:100BF00082E090E0E0917502F091760230E020E032
:100C0000B0E0A0E0309799F42115310509F44AC00D
:100C1000281B390B24303105D8F58A819B81611559
:100C2000710589F1FB0193838283FE0111C040812C
:100C300051810281138148175907E0F0481759077D
:100C400099F4109761F012960C93129713961C93D7
:100C50003296CF01DF91CF911F910F9108950093AC
:100C6000750210937602F4CF2115310551F0421729
:100C7000530738F0A901DB019A01BD01DF01F8013A
:100C8000C1CFEF01F9CF9093760280937502CDCF5B
:100C9000FE01E20FF31F81939193225031093983B2
:100CA0002883D7CF2091730230917402232B41F413
:100CB000209102013091030130937402209373025A
:100CC00020910001309101012115310541F42DB72A
:100CD0003EB74091040150910501241B350BE09172
:100CE0007302F0917402E217F307A0F42E1B3F0B7E
:100CF0002817390778F0AC014E5F5F4F241735078E
:100D000048F04E0F5F1F509374024093730281931B
:100D100091939FCFF0E0E0E09CCFCF93DF930097DB
:100D2000E9F0FC01329713821282A0917502B09112
:100D30007602ED0130E020E01097A1F420813181AE
:100D4000820F931F20917302309174022817390784
:100D500009F061C0F0937402E0937302DF91CF91C8
:100D60000895EA01CE17DF07E8F54A815B819E010D
:100D700041155105B1F7E901FB83EA834991599186
:100D8000C40FD51FEC17FD0761F480819181029695
:100D9000840F951FE90199838883828193819B83C6
:100DA0008A83F0E0E0E012968D919C911397009772
:100DB000B9F52D913C911197CD010296820F931FA9
:100DC00020917302309174022817390739F6309751
:100DD00051F51092760210927502B0937402A093AE
:100DE0007302BCCFD383C28340815181840F951F8E
:100DF000C817D90761F44E5F5F4F88819981480F0A
:100E0000591F518340838A819B819383828321155B
:100E1000310509F0B0CFF0937602E09375029ECFD2
:100E2000FD01DC01C0CF13821282D7CFB0E0A0E079
:100E3000ECE1F7E00C9402088C01009751F4CB012F
:100E40000E94F1058C01C801CDB7DEB7E0E10C943A
:100E50001E08FC01E60FF71F9C0122503109E21722
:100E6000F30708F49DC0D901CD91DC911197C61705
:100E7000D70798F0C530D10530F3CE010497861717
:100E8000970708F3C61BD70B2297C193D1936D9395
:100E90007C93CF010E948D06D6CF5B01AC1ABD0AB0
:100EA0004C018C0E9D1EA0917502B0917602512CC2
:100EB000412CF12CE12C109731F580917302909127
:100EC00074028815990509F05CC04616570608F0AB
:100ED00058C08091000190910101009741F48DB7B5
:100EE0009EB74091040150910501841B950BE817B2
:100EF000F90708F055C0F0937402E0937302F9010A
:100F000071836083A0CF8D919C91119712966C9004
:100F1000129713967C901397A815B90559F56C0193
:100F200042E0C40ED11CCA14DB0420F1AC014A1902
:100F30005B09DA011296159780F062827382518301
:100F40004083D9016D937C93E114F10471F0D701D2
:100F50001396FC93EE93129776CF22968C0F9D1FDB
:100F6000F90191838083F301EFCFF0937602E09350
:100F7000750269CF4816590608F42C017D01D3018A
:100F80009ACFCB010E94F1057C01009749F0AE0198
:100F9000B8010E94E407C8010E948D06870153CF63
:100FA00010E000E050CF91110C94FD07803219F051
:100FB00089508550C8F708959111089581548A5138
:100FC00008F4805E855A0895FB01DC0102C001909F
:100FD0000D9241505040D8F70895FB01DC018D91EE
:100FE000019080190110D9F3990B0895FB01DC01E0
:100FF00001900D920020E1F7089599278827089520
:101000002F923F924F925F926F927F928F929F9218
:10101000AF92BF92CF92DF92EF92FF920F931F9306
:10102000CF93DF93CDB7DEB7CA1BDB0B0FB6F894B7
:10103000DEBF0FBECDBF09942A88398848885F84F7
:101040006E847D848C849B84AA84B984C884DF8068
:10105000EE80FD800C811B81AA81B981CE0FD11D4C
:101060000FB6F894DEBF0FBECDBFED01089510E0BE
:10107000CEE5D0E004C0FE010E94EB052196CF35FD
:08108000D107C9F7F894FFCF76
:101088000000770220003D3D3D204D6F746F7220B7
:10109800436F6E74726F6C6C6572203D3D3D0054F9
:1010A80079706520276F6E2720746F2073746172C2
:1010B80074206D6F746F72005479706520276F66A5
:1010C800662720746F2073746F70206D6F746F7251
:1010D800003D3D3D3D3D3D3D3D3D3D3D3D3D3D3D75
:1010E8003D3D3D3D3D3D3D3D3D006F6E003E3E205A
:1010F8004D6F746F72204F4E006F6666003E3E2043
:101108004D6F746F72204F4646003E3E20556E6B01
:101118006E6F776E20636F6D6D616E642E205573F0
:101128006520276F6E27206F7220276F666627005D
:10113800000000009D01DB023E017D0110012A0133
:061148001C010D0A00006D
:00000001FF
